{
  "contractName": "Wallet",
  "abi": [
    {
      "inputs": [
        {
          "internalType": "address[]",
          "name": "_approvers",
          "type": "address[]"
        },
        {
          "internalType": "uint256",
          "name": "_quorum",
          "type": "uint256"
        }
      ],
      "stateMutability": "nonpayable",
      "type": "constructor"
    },
    {
      "inputs": [
        {
          "internalType": "uint256",
          "name": "",
          "type": "uint256"
        }
      ],
      "name": "approvers",
      "outputs": [
        {
          "internalType": "address",
          "name": "",
          "type": "address"
        }
      ],
      "stateMutability": "view",
      "type": "function",
      "constant": true
    },
    {
      "inputs": [],
      "name": "quorum",
      "outputs": [
        {
          "internalType": "uint256",
          "name": "",
          "type": "uint256"
        }
      ],
      "stateMutability": "view",
      "type": "function",
      "constant": true
    },
    {
      "inputs": [
        {
          "internalType": "uint256",
          "name": "",
          "type": "uint256"
        }
      ],
      "name": "transfers",
      "outputs": [
        {
          "internalType": "uint256",
          "name": "id",
          "type": "uint256"
        },
        {
          "internalType": "uint256",
          "name": "amount",
          "type": "uint256"
        },
        {
          "internalType": "address payable",
          "name": "to",
          "type": "address"
        },
        {
          "internalType": "uint256",
          "name": "approvals",
          "type": "uint256"
        },
        {
          "internalType": "bool",
          "name": "sent",
          "type": "bool"
        }
      ],
      "stateMutability": "view",
      "type": "function",
      "constant": true
    },
    {
      "inputs": [
        {
          "internalType": "address",
          "name": "",
          "type": "address"
        },
        {
          "internalType": "uint256",
          "name": "",
          "type": "uint256"
        }
      ],
      "name": "transfersApprovals",
      "outputs": [
        {
          "internalType": "bool",
          "name": "",
          "type": "bool"
        }
      ],
      "stateMutability": "view",
      "type": "function",
      "constant": true
    },
    {
      "stateMutability": "payable",
      "type": "receive",
      "payable": true
    },
    {
      "inputs": [],
      "name": "getApprovers",
      "outputs": [
        {
          "internalType": "address[]",
          "name": "",
          "type": "address[]"
        }
      ],
      "stateMutability": "view",
      "type": "function",
      "constant": true
    },
    {
      "inputs": [],
      "name": "getTransfers",
      "outputs": [
        {
          "components": [
            {
              "internalType": "uint256",
              "name": "id",
              "type": "uint256"
            },
            {
              "internalType": "uint256",
              "name": "amount",
              "type": "uint256"
            },
            {
              "internalType": "address payable",
              "name": "to",
              "type": "address"
            },
            {
              "internalType": "uint256",
              "name": "approvals",
              "type": "uint256"
            },
            {
              "internalType": "bool",
              "name": "sent",
              "type": "bool"
            }
          ],
          "internalType": "struct Wallet.Transfer[]",
          "name": "",
          "type": "tuple[]"
        }
      ],
      "stateMutability": "view",
      "type": "function",
      "constant": true
    },
    {
      "inputs": [
        {
          "internalType": "uint256",
          "name": "amount",
          "type": "uint256"
        },
        {
          "internalType": "address payable",
          "name": "to",
          "type": "address"
        }
      ],
      "name": "createTransfer",
      "outputs": [],
      "stateMutability": "nonpayable",
      "type": "function"
    },
    {
      "inputs": [
        {
          "internalType": "uint256",
          "name": "transferId",
          "type": "uint256"
        }
      ],
      "name": "approveTransfer",
      "outputs": [],
      "stateMutability": "nonpayable",
      "type": "function"
    }
  ],
  "bytecode": "0x60806040523480156200001157600080fd5b50604051620014e8380380620014e8833981810160405281019062000037919062000336565b81600090805190602001906200004f9291906200005f565b508060018190555050506200039c565b828054828255906000526020600020908101928215620000db579160200282015b82811115620000da5782518260006101000a81548173ffffffffffffffffffffffffffffffffffffffff021916908373ffffffffffffffffffffffffffffffffffffffff1602179055509160200191906001019062000080565b5b509050620000ea9190620000ee565b5090565b5b8082111562000109576000816000905550600101620000ef565b5090565b6000604051905090565b600080fd5b600080fd5b600080fd5b6000601f19601f8301169050919050565b7f4e487b7100000000000000000000000000000000000000000000000000000000600052604160045260246000fd5b620001718262000126565b810181811067ffffffffffffffff8211171562000193576200019262000137565b5b80604052505050565b6000620001a86200010d565b9050620001b6828262000166565b919050565b600067ffffffffffffffff821115620001d957620001d862000137565b5b602082029050602081019050919050565b600080fd5b600073ffffffffffffffffffffffffffffffffffffffff82169050919050565b60006200021c82620001ef565b9050919050565b6200022e816200020f565b81146200023a57600080fd5b50565b6000815190506200024e8162000223565b92915050565b60006200026b6200026584620001bb565b6200019c565b90508083825260208201905060208402830185811115620002915762000290620001ea565b5b835b81811015620002be5780620002a988826200023d565b84526020840193505060208101905062000293565b5050509392505050565b600082601f830112620002e057620002df62000121565b5b8151620002f284826020860162000254565b91505092915050565b6000819050919050565b6200031081620002fb565b81146200031c57600080fd5b50565b600081519050620003308162000305565b92915050565b6000806040838503121562000350576200034f62000117565b5b600083015167ffffffffffffffff8111156200037157620003706200011c565b5b6200037f85828601620002c8565b925050602062000392858286016200031f565b9150509250929050565b61113c80620003ac6000396000f3fe60806040526004361061007f5760003560e01c80636cb3e8ef1161004e5780636cb3e8ef146101475780639377d71114610172578063cacca4a0146101b3578063d3650fb8146101dc57610086565b80631703a0181461008b5780632f65142c146100b65780634c12fa47146100e15780636675891f1461010a57610086565b3661008657005b600080fd5b34801561009757600080fd5b506100a0610219565b6040516100ad9190610a47565b60405180910390f35b3480156100c257600080fd5b506100cb61021f565b6040516100d89190610be4565b60405180910390f35b3480156100ed57600080fd5b5061010860048036038101906101039190610c63565b61030d565b005b34801561011657600080fd5b50610131600480360381019061012c9190610ce1565b6104ed565b60405161013e9190610d30565b60405180910390f35b34801561015357600080fd5b5061015c61051c565b6040516101699190610e09565b60405180910390f35b34801561017e57600080fd5b5061019960048036038101906101949190610e2b565b6105aa565b6040516101aa959493929190610e67565b60405180910390f35b3480156101bf57600080fd5b506101da60048036038101906101d59190610e2b565b61061d565b005b3480156101e857600080fd5b5061020360048036038101906101fe9190610e2b565b6109ef565b6040516102109190610ec9565b60405180910390f35b60015481565b60606002805480602002602001604051908101604052809291908181526020016000905b8282101561030457838290600052602060002090600502016040518060a001604052908160008201548152602001600182015481526020016002820160009054906101000a900473ffffffffffffffffffffffffffffffffffffffff1673ffffffffffffffffffffffffffffffffffffffff1673ffffffffffffffffffffffffffffffffffffffff168152602001600382015481526020016004820160009054906101000a900460ff16151515158152505081526020019060010190610243565b50505050905090565b6000805b6000805490508110156103a8576000818154811061033257610331610ee4565b5b9060005260206000200160009054906101000a900473ffffffffffffffffffffffffffffffffffffffff1673ffffffffffffffffffffffffffffffffffffffff163373ffffffffffffffffffffffffffffffffffffffff16141561039557600191505b80806103a090610f42565b915050610311565b5060011515811515146103f0576040517f08c379a00000000000000000000000000000000000000000000000000000000081526004016103e79061100e565b60405180910390fd5b60026040518060a0016040528060028054905081526020018581526020018473ffffffffffffffffffffffffffffffffffffffff16815260200160008152602001600015158152509080600181540180825580915050600190039060005260206000209060050201600090919091909150600082015181600001556020820151816001015560408201518160020160006101000a81548173ffffffffffffffffffffffffffffffffffffffff021916908373ffffffffffffffffffffffffffffffffffffffff1602179055506060820151816003015560808201518160040160006101000a81548160ff0219169083151502179055505050505050565b60036020528160005260406000206020528060005260406000206000915091509054906101000a900460ff1681565b606060008054806020026020016040519081016040528092919081815260200182805480156105a057602002820191906000526020600020905b8160009054906101000a900473ffffffffffffffffffffffffffffffffffffffff1673ffffffffffffffffffffffffffffffffffffffff1681526020019060010190808311610556575b5050505050905090565b600281815481106105ba57600080fd5b90600052602060002090600502016000915090508060000154908060010154908060020160009054906101000a900473ffffffffffffffffffffffffffffffffffffffff16908060030154908060040160009054906101000a900460ff16905085565b6000805b6000805490508110156106b8576000818154811061064257610641610ee4565b5b9060005260206000200160009054906101000a900473ffffffffffffffffffffffffffffffffffffffff1673ffffffffffffffffffffffffffffffffffffffff163373ffffffffffffffffffffffffffffffffffffffff1614156106a557600191505b80806106b090610f42565b915050610621565b506001151581151514610700576040517f08c379a00000000000000000000000000000000000000000000000000000000081526004016106f79061100e565b60405180910390fd5b600015156002838154811061071857610717610ee4565b5b906000526020600020906005020160040160009054906101000a900460ff16151514610779576040517f08c379a00000000000000000000000000000000000000000000000000000000081526004016107709061107a565b60405180910390fd5b60001515600360003373ffffffffffffffffffffffffffffffffffffffff1673ffffffffffffffffffffffffffffffffffffffff168152602001908152602001600020600084815260200190815260200160002060009054906101000a900460ff1615151461081d576040517f08c379a0000000000000000000000000000000000000000000000000000000008152600401610814906110e6565b60405180910390fd5b6001600360003373ffffffffffffffffffffffffffffffffffffffff1673ffffffffffffffffffffffffffffffffffffffff168152602001908152602001600020600084815260200190815260200160002060006101000a81548160ff0219169083151502179055506002828154811061089a57610899610ee4565b5b906000526020600020906005020160030160008154809291906108bc90610f42565b9190505550600154600283815481106108d8576108d7610ee4565b5b906000526020600020906005020160030154106109eb5760016002838154811061090557610904610ee4565b5b906000526020600020906005020160040160006101000a81548160ff02191690831515021790555060006002838154811061094357610942610ee4565b5b906000526020600020906005020160020160009054906101000a900473ffffffffffffffffffffffffffffffffffffffff16905060006002848154811061098d5761098c610ee4565b5b90600052602060002090600502016001015490508173ffffffffffffffffffffffffffffffffffffffff166108fc829081150290604051600060405180830381858888f193505050501580156109e7573d6000803e3d6000fd5b5050505b5050565b600081815481106109ff57600080fd5b906000526020600020016000915054906101000a900473ffffffffffffffffffffffffffffffffffffffff1681565b6000819050919050565b610a4181610a2e565b82525050565b6000602082019050610a5c6000830184610a38565b92915050565b600081519050919050565b600082825260208201905092915050565b6000819050602082019050919050565b610a9781610a2e565b82525050565b600073ffffffffffffffffffffffffffffffffffffffff82169050919050565b6000610ac882610a9d565b9050919050565b610ad881610abd565b82525050565b60008115159050919050565b610af381610ade565b82525050565b60a082016000820151610b0f6000850182610a8e565b506020820151610b226020850182610a8e565b506040820151610b356040850182610acf565b506060820151610b486060850182610a8e565b506080820151610b5b6080850182610aea565b50505050565b6000610b6d8383610af9565b60a08301905092915050565b6000602082019050919050565b6000610b9182610a62565b610b9b8185610a6d565b9350610ba683610a7e565b8060005b83811015610bd7578151610bbe8882610b61565b9750610bc983610b79565b925050600181019050610baa565b5085935050505092915050565b60006020820190508181036000830152610bfe8184610b86565b905092915050565b600080fd5b610c1481610a2e565b8114610c1f57600080fd5b50565b600081359050610c3181610c0b565b92915050565b610c4081610abd565b8114610c4b57600080fd5b50565b600081359050610c5d81610c37565b92915050565b60008060408385031215610c7a57610c79610c06565b5b6000610c8885828601610c22565b9250506020610c9985828601610c4e565b9150509250929050565b6000610cae82610a9d565b9050919050565b610cbe81610ca3565b8114610cc957600080fd5b50565b600081359050610cdb81610cb5565b92915050565b60008060408385031215610cf857610cf7610c06565b5b6000610d0685828601610ccc565b9250506020610d1785828601610c22565b9150509250929050565b610d2a81610ade565b82525050565b6000602082019050610d456000830184610d21565b92915050565b600081519050919050565b600082825260208201905092915050565b6000819050602082019050919050565b610d8081610ca3565b82525050565b6000610d928383610d77565b60208301905092915050565b6000602082019050919050565b6000610db682610d4b565b610dc08185610d56565b9350610dcb83610d67565b8060005b83811015610dfc578151610de38882610d86565b9750610dee83610d9e565b925050600181019050610dcf565b5085935050505092915050565b60006020820190508181036000830152610e238184610dab565b905092915050565b600060208284031215610e4157610e40610c06565b5b6000610e4f84828501610c22565b91505092915050565b610e6181610abd565b82525050565b600060a082019050610e7c6000830188610a38565b610e896020830187610a38565b610e966040830186610e58565b610ea36060830185610a38565b610eb06080830184610d21565b9695505050505050565b610ec381610ca3565b82525050565b6000602082019050610ede6000830184610eba565b92915050565b7f4e487b7100000000000000000000000000000000000000000000000000000000600052603260045260246000fd5b7f4e487b7100000000000000000000000000000000000000000000000000000000600052601160045260246000fd5b6000610f4d82610a2e565b91507fffffffffffffffffffffffffffffffffffffffffffffffffffffffffffffffff821415610f8057610f7f610f13565b5b600182019050919050565b600082825260208201905092915050565b7f596f7520617265206e6f7420616c6c6f77656420746f206d616e61676520612060008201527f7472616e73616374696f6e000000000000000000000000000000000000000000602082015250565b6000610ff8602b83610f8b565b915061100382610f9c565b604082019050919050565b6000602082019050818103600083015261102781610feb565b9050919050565b7f5472616e7366657220686173206265656e20616c72656164792073656e740000600082015250565b6000611064601e83610f8b565b915061106f8261102e565b602082019050919050565b6000602082019050818103600083015261109381611057565b9050919050565b7f43616e6e6f7420617070726f7665207472616e73666572207477696365000000600082015250565b60006110d0601d83610f8b565b91506110db8261109a565b602082019050919050565b600060208201905081810360008301526110ff816110c3565b905091905056fea264697066735822122097aac8835ba4420380b5b13cb0de446c453facf7150c1c20acfc3a30a51c419a64736f6c634300080b0033",
  "immutableReferences": {},
  "source": "pragma solidity >=0.4.21 <0.9.0;\n\ncontract Wallet {\n    address [] public approvers;\n    uint public quorum;\n    struct Transfer {\n        uint id;\n        uint amount;\n        address payable to;\n        uint approvals;\n        bool sent;\n    }\n    Transfer[] public transfers;\n    mapping(address => mapping(uint => bool)) public transfersApprovals;\n\n    constructor(address [] memory _approvers, uint _quorum){\n        approvers = _approvers;\n        quorum = _quorum;\n    }\n\n    function getApprovers() external view returns(address[] memory) {\n        return approvers;\n    }\n\n    function getTransfers() external view returns(Transfer[] memory) {\n        return transfers;\n    }\n\n    function createTransfer(uint amount, address payable to) onlyApprover() external{\n        transfers.push(Transfer(\n            transfers.length,\n            amount,\n            to,\n            0,\n            false\n        ));\n    }\n\n    function approveTransfer(uint transferId) onlyApprover() external {\n        require(transfers[transferId].sent == false, \"Transfer has been already sent\");\n        require(transfersApprovals[msg.sender][transferId] == false, \"Cannot approve transfer twice\");\n        \n        transfersApprovals[msg.sender][transferId] = true;\n        transfers[transferId].approvals++;\n\n        if(transfers[transferId].approvals >= quorum){\n            transfers[transferId].sent = true;\n            address payable to  = transfers[transferId].to;\n            uint amount = transfers[transferId].amount;\n            to.transfer(amount);\n        }\n    }\n\n    receive() external payable{\n    }\n\n    modifier onlyApprover(){\n        bool allowed = false;\n        // Is it better to have a for loop for a list of approvers or a map and have fast access ?\n        for(uint i = 0; i < approvers.length; i++){\n            if(msg.sender == approvers[i]){\n                allowed = true;\n            }\n        }\n        require(allowed == true, \"You are not allowed to manage a transaction\");\n        _;\n    }\n}\n",
  "sourcePath": "/Users/manuel/blockchain/projects/multisig-wallet/contracts/Wallet.sol",
  "compiler": {
    "name": "solc",
    "version": "0.8.11+commit.d7f03943.Emscripten.clang"
  },
  "schemaVersion": "3.4.4",
  "updatedAt": "2022-01-13T23:47:01.575Z",
  "networkType": "ethereum",
  "devdoc": {
    "kind": "dev",
    "methods": {},
    "version": 1
  },
  "userdoc": {
    "kind": "user",
    "methods": {},
    "version": 1
  }
}